:100000000C942A000C944A000C9473000C949C00ED
:100010000C943C000C943C000C943C000C943C0070
:100020000C943C000C943C000C943C000C943C0060
:100030000C943C000C943C000C943C000C943C0050
:100040000C943C000C943C000C943C000C943C0040
:100050000C943C0011241FBECFE5D8E0DEBFCDBF1D
:1000600020E0A0E6B0E001C01D92A636B207E1F79D
:100070000E9443000C94E2000C94000081E00E9476
:10008000C500089508950E943E000E94420080E04D
:1000900090E008951F920F920FB60F9211242F93A4
:1000A0003F934F935F936F937F938F939F93AF9300
:1000B000BF93EF93FF93E0916000F0916100309760
:1000C00009F00995FF91EF91BF91AF919F918F91A9
:1000D0007F916F915F914F913F912F910F900FBE44
:1000E0000F901F9018951F920F920FB60F92112428
:1000F0002F933F934F935F936F937F938F939F9330
:10010000AF93BF93EF93FF93E0916200F091630090
:10011000309709F00995FF91EF91BF91AF919F91B1
:100120008F917F916F915F914F913F912F910F90A0
:100130000FBE0F901F9018951F920F920FB60F923F
:1001400011242F933F934F935F936F937F938F93DC
:100150009F93AF93BF93EF93FF93E0916400F0916F
:100160006500309709F00995FF91EF91BF91AF912C
:100170009F918F917F916F915F914F913F912F91BF
:100180000F900FBE0F901F901895882319F08130A3
:1001900079F016C083B78F7B83BF83B7877F83BF18
:1001A0008FB780688FBF89B7816089BF80E008956D
:1001B00083B78F7B83BF83B7877F83BF80E008953A
:0801C00081E00895F894FFCFDF
:00000001FF
