:100000000C942A000C9447000C9447000C94470071
:100010000C94940D0C944C0D0C9447000C944700D8
:100020000C9447000C9447000C9447000C94470034
:100030000C9447000C9447000C9447000C94470024
:100040000C94D3050C9447000C9447000C94470083
:100050000C94470011241FBECFE5D8E0DEBFCDBF12
:1000600011E0A0E6B0E0E2E0F7E202C005900D92F8
:10007000A632B107D9F721E0A6E2B1E001C01D9296
:10008000A833B207E1F70E947B050C947F130C9410
:100090000000CF93DF93CDB7DEB781E00E943B082D
:1000A00080E00E94D30A0E9427050E947F020E94DE
:1000B00091020E9476030E94F70464E080E00E94AF
:1000C0008E0484E690E00E94440488EE93E00E944F
:1000D0008D080E9404058CE790E00E94440488EE9D
:1000E00093E00E948D080E94F70484E00E941D01A5
:1000F0000000DF91CF910895CF93DF93CDB7DEB7A6
:1001000029970FB6F894DEBF0FBECDBF8091620075
:10011000882F90E081309105A9F1049709F08CC0F7
:100120008FEF8983CE0101960E94DB0289818133A2
:1001300019F08981823369F480E197E20E94200BF3
:100140008981813311F481E001C082E00E94AD0118
:1001500008C08981833329F40E94290D81E00E941F
:100160001D0180912901813009F065C0109229019B
:1001700084E190E0909361008093600081E00E94B0
:100180001D0159C084E190E09B838A83CE010296D1
:100190000E9431056EE081E00E948E048A819B817D
:1001A000292F2F938F938BE990E0892F8F938BE9E1
:1001B00090E08F93CE010496292F2F938F930E9466
:1001C00095100F900F900F900F900F900F90CE0101
:1001D00004960E9444048FEF8987CE0109960E94FD
:1001E000DB028985853319F40E94640225C0898564
:1001F000843321F484E00E941D011EC02A813B81CA
:1002000080916000909161008217930750F46FE035
:1002100080E00E948E0480E00E9402040E94850219
:100220000BC06FE080E00E948E0480E20E94020416
:100230000E948B0201C0000069CFCF93DF93CDB73E
:10024000DEB7A3970FB6F894DEBF0FBECDBF8BA36A
:100250008BA1882F90E08130910519F0049799F0D7
:1002600072C00E94CE020E948B020E94F70460E0DE
:1002700081E00E948E048EE990E00E9444048BA1EC
:100280008093620060C00E94C1020E948B020E94A3
:10029000F7048DEA90E00E94440484EF91E00E940C
:1002A0008D080E94F7048CEC90E00E94440480EDDD
:1002B00097E00E948D080E94040580916000909153
:1002C0006100292F2F938F938AEE90E0892F8F93CF
:1002D0008AEE90E08F93CE0101969F938F930E94B8
:1002E00095100F900F900F900F900F900F90CE01E0
:1002F00001960E94440460E081E00E948E041B8A03
:100300001A8A2FE0CE014496FC01322F11923A95C1
:10031000E9F780916000909161009C0122513109C0
:10032000CE014296A9016CE770E00E948E10CE01CA
:1003300042960E94440480E197E20E94200B8BA128
:100340008093620000000000A3960FB6F894DEBF11
:100350000FBECDBFDF91CF910895CF93DF9300D033
:1003600000D0CDB7DEB78C838091600090916100A2
:10037000839721F48C81813009F496C080916000CC
:1003800090916100429721F48C81823009F48CC0F5
:100390008C81813091F5809160009091610082970D
:1003A00041F46FE081E00E948E048FEF0E9402040E
:1003B0001AC08091600090916100429741F460E022
:1003C00081E00E948E048CE70E9402040CC08091A0
:1003D0006000909161008251682F81E00E948E043C
:1003E0008CE70E9402048091600090916100019668
:1003F000909361008093600034C08C81823089F5D5
:100400008091600090916100439741F460E081E049
:100410000E948E048FEF0E9402041AC08091600037
:1004200090916100839741F46FE081E00E948E0417
:100430008CE70E9402040CC08091600090916100E2
:100440008351682F81E00E948E0480E20E940204A2
:10045000809160009091610001979093610080937A
:10046000600067E080E00E948E04809160009091BF
:100470006100292F2F938F938BE990E0892F8F9321
:100480008BE990E08F93CE0101969F938F930E940A
:1004900095100F900F900F900F900F900F90CE012E
:1004A00001960E94440408C00E94850288EE93E0F1
:1004B0000E948D080E948B0200000F900F900F90F9
:1004C0000F90DF91CF910895CF93DF93CDB7DEB733
:1004D00084E190E090936100809360000E94F704B3
:1004E0008BEF90E00E94440488EE93E00E948D0818
:1004F00081E00E941D010000DF91CF91089541E04D
:1005000061E083E00E94FC05089541E061E083E042
:100510000E940107089540E061E083E00E94010726
:100520000895CF93DF93CDB7DEB741E062E082E07C
:100530000E94FC0541E062E083E00E94FC0540E08F
:1005400062E085E00E94FC0540E062E086E00E94F7
:10055000FC0540E062E087E00E94FC0541E062E0CB
:1005600085E00E94010741E062E086E00E94010709
:1005700041E062E087E00E9401070000DF91CF9137
:100580000895CF93DF93CDB7DEB741E062E082E01C
:100590000E94FC050000DF91CF910895CF93DF9377
:1005A000CDB7DEB740E062E082E00E94FC050000CB
:1005B000DF91CF910895CF93DF93CDB7DEB72D971D
:1005C0000FB6F894DEBF0FBECDBF9D878C8781E04C
:1005D00089838C859D85892B09F47BC081E08B877D
:1005E0001A828C859D852FEFFC0120831B826CC0B5
:1005F0008B818E5F40E062E00E9401071C8254C044
:1006000081E08B878C8125E0280FCE010B96AC0111
:1006100062E0822F0E9499068B85882309F041C0F1
:1006200084E190E00E948D088C8125E0280FCE01A6
:100630000B96AC0162E0822F0E9499060AC08C8161
:1006400025E0280FCE010B96AC0162E0822F0E94BC
:1006500099068B85882399F386E0E7E1F1E0DE01D6
:10066000159601900D928A95E1F78B81282F30E045
:100670008C81482F50E0C901880F991F820F931F6A
:100680009E012F5F3F4F820F931F840F951F04968B
:10069000FC0120818C859D85FC01208381E08A837B
:1006A00007C08C818F5F8C838C81833008F4A8CF46
:1006B0008B818E5F41E062E00E9401078A81813078
:1006C00051F08B818F5F8B838B81823008F490CFC8
:1006D00003C0198201C0000089812D960FB6F894DD
:1006E000DEBF0FBECDBFDF91CF910895CF93DF93D3
:1006F000CDB7DEB728970FB6F894DEBF0FBECDBFDB
:100700004FEF6FEF80E00E94D9074FEF60E080E08D
:100710000E940A0881E00E943B088AE090E00E9463
:100720008D0882E00E94C10388E20E94C1038CE030
:100730000E94C10386E00E94C10381E00E94C103C0
:1007400082E090E00E948D0828E0EDE1F1E0CE012A
:100750000196DC0101900D922A95E1F760E0CE014F
:1007600001960E94C00482E090E00E948D08000083
:1007700028960FB6F894DEBF0FBECDBFDF91CF91A4
:100780000895CF93DF931F92CDB7DEB7898340E002
:1007900060E081E00E94010740EF698180E00E94F3
:1007A0000A0841E060E083E00E94010781E090E0F8
:1007B0000E94C10940E060E083E00E94010788ECEC
:1007C00090E00E94C10989818295807F40EF682F67
:1007D00080E00E940A0841E060E083E00E94010797
:1007E00081E090E00E94C10940E060E083E00E9467
:1007F000010782E090E00E948D0800000F90DF91D9
:10080000CF910895CF93DF931F92CDB7DEB7898341
:1008100041E060E081E00E94010740E060E083E0A9
:100820000E94010740EF698180E00E940A0841E0D0
:1008300060E083E00E94010781E090E00E94C1092E
:1008400040E060E083E00E94010789818295807F1B
:1008500040EF682F80E00E940A0841E060E083E0FA
:100860000E94010781E090E00E94C10940E060E041
:1008700083E00E94010789E190E00E948D0800005A
:100880000F90DF91CF910895CF93DF9300D0CDB734
:10089000DEB79A83898336C089819A81FC01808181
:1008A0008A3079F49091260181E0903108F080E05F
:1008B00060E00E948E0489819A8101969A838983DF
:1008C00021C089819A81FC0180810E940204898172
:1008D0009A8101969A838983809126018F5F809304
:1008E000260180912601803129F460E081E00E9498
:1008F0008E0408C080912601803221F460E080E0FF
:100900000E948E0489819A81FC018081882321F6CE
:1009100000000F900F90DF91CF910895CF93DF9358
:1009200000D000D0CDB7DEB78B836C838B81823053
:1009300018F48C81803110F080E01BC080E889833E
:1009400080EC8A838B81882F90E09E012F5F3F4F40
:10095000820F931FFC0190818C81890F0E94C1033B
:100960008B81982F9295907F8C81890F809326019F
:1009700081E00F900F900F900F90DF91CF9108952D
:10098000CF93DF9300D000D01F92CDB7DEB79C830A
:100990008B836D838D81893010F080E020C08D8144
:1009A000882F90E00896880F880F880F0E94C10357
:1009B0001A8219820FC089819A812B813C81820F12
:1009C000931FFC0180810E94020489819A81019613
:1009D0009A83898389819A8108976CF381E00F90CB
:1009E0000F900F900F900F90DF91CF910895CF93BC
:1009F000DF93CDB7DEB781E00E94C10310922601DC
:100A00000000DF91CF910895CF93DF9300D0CDB751
:100A1000DEB71A8219820CC08CE10E94C10384E106
:100A200090E00E948D0889819A8101969A8389833A
:100A300089819A81409784F381E00E94C1031092DA
:100A4000260100000F900F90DF91CF910895CF9372
:100A5000DF93CDB7DEB70E9488050000DF91CF910C
:100A60000895CF93DF9300D000D000D0CDB7DEB78C
:100A70009E838D831C821B8280E00E949B05CE0199
:100A80000396BC0180E00E94A8051A8219828B811E
:100A90009C819C0140E050E080E09AE0DC010E94F3
:100AA0008310DC01CB01072E7AE0B695A7959795C8
:100AB00087957A95D1F7702D9A83898389819A8158
:100AC0009C01ADECBCEC0E9474109C0136952795FE
:100AD00036952795369527958D819E81FC0131832A
:100AE0002083000026960FB6F894DEBF0FBECDBF60
:100AF000DF91CF910895CF93DF93CDB7DEB70E94FA
:100B000049000E947C0080E090E0DF91CF91089541
:100B10003E9A3F9A3D98359880B78F7D80BF80B7C9
:100B20008F7B80BF80B78F7780BF3398309A319AA0
:100B3000329A379A0895803248F497B1907E97B9E7
:100B400097B1892B87B9369A81E0089580E008959E
:100B5000823008F56115710501F1882319F08130A3
:100B600099F01DC0349906C080E593EC349902C019
:100B70000197E1F7349B15C0349A84B195B1FB011C
:100B80009183808381E0089584B195B1FB019183C5
:100B9000808381E0089580E0089580E0089581E0F9
:100BA000089580E008951F920F920FB60F921124BE
:100BB0002F933F934F935F936F937F938F939F9365
:100BC000AF93BF93EF93FF93E0912701F09128013A
:100BD000309709F00995FF91EF91BF91AF919F91E7
:100BE0008F917F916F915F914F913F912F910F90D6
:100BF0000FBE0F901F901895883008F08EC061309E
:100C000049F138F0623009F446C0633009F464C039
:100C100086C0413071F44AB321E030E0B90102C02E
:100C2000660F771F8A95E2F7CB01842B8ABB80E0A1
:100C30000895411176C04AB321E030E0B90102C005
:100C4000660F771F8A95E2F7CB01809584238ABBD4
:100C500080E00895413071F447B321E030E0B901FC
:100C600002C0660F771F8A95E2F7CB01842B87BB02
:100C700080E00895411157C047B321E030E0B90149
:100C800002C0660F771F8A95E2F7CB018095842317
:100C900087BB80E00895413071F444B321E030E037
:100CA000B90102C0660F771F8A95E2F7CB01842B4A
:100CB00084BB80E00895411138C044B321E030E0A6
:100CC000B90102C0660F771F8A95E2F7CB018095C4
:100CD000842384BB80E00895413071F441B321E066
:100CE00030E0B90102C0660F771F8A95E2F7CB01A9
:100CF000842B81BB80E00895411119C041B321E0EC
:100D000030E0B90102C0660F771F8A95E2F7CB0188
:100D10008095842381BB80E0089581E0089581E07F
:100D2000089581E0089581E0089581E0089581E0CB
:100D30000895883008F061C06130E9F030F0623029
:100D400081F1633009F443C05AC069B321E030E057
:100D5000082E02C0220F331F0A94E2F770E0262308
:100D60003723B90102C0759567958A95E2F7FA01B4
:100D7000608380E0089566B321E030E0082E02C071
:100D8000220F331F0A94E2F770E026233723B901BC
:100D900002C0759567958A95E2F7FA01608380E055
:100DA000089563B321E030E0082E02C0220F331F04
:100DB0000A94E2F770E026233723B90102C0759543
:100DC00067958A95E2F7FA01608380E0089560B341
:100DD00021E030E0082E02C0220F331F0A94E2F710
:100DE00070E026233723B90102C0759567958A956F
:100DF000E2F7FA01608380E0089581E0089581E0E0
:100E00000895EF92FF920F931F93883008F0C1C0AE
:100E10006130B1F138F0623009F460C0633009F438
:100E20008BC0B9C0423008F0B8C04423A1F02BB346
:100E300041E050E060E070E07A018B0104C0EE0C0C
:100E4000FF1C001F111F8A95D2F7D801C701822B02
:100E50008BBB80E0A9C02BB341E050E060E070E0C4
:100E60007A018B0104C0EE0CFF1C001F111F8A9534
:100E7000D2F7D801C701809582238BBB80E094C054
:100E8000423008F08CC04423A1F028B341E050E088
:100E900060E070E07A018B0104C0EE0CFF1C001FC3
:100EA000111F8A95D2F7D801C701822B88BB80E039
:100EB0007BC028B341E050E060E070E07A018B0134
:100EC00004C0EE0CFF1C001F111F8A95D2F7D80139
:100ED000C7018095822388BB80E066C0423008F05D
:100EE00060C04423A1F025B341E050E060E070E031
:100EF0007A018B0104C0EE0CFF1C001F111F8A95A4
:100F0000D2F7D801C701822B85BB80E04DC025B345
:100F100041E050E060E070E07A018B0104C0EE0C2B
:100F2000FF1C001F111F8A95D2F7D801C7018095B9
:100F3000822385BB80E038C04230A8F54423A1F06D
:100F400022B341E050E060E070E07A018B0104C020
:100F5000EE0CFF1C001F111F8A95D2F7D801C701A4
:100F6000822B82BB80E020C022B341E050E060E0F1
:100F700070E07A018B0104C0EE0CFF1C001F111FF2
:100F80008A95D2F7D801C7018095822382BB80E081
:100F90000BC081E009C080E007C081E005C081E0AE
:100FA00003C081E001C081E01F910F91FF90EF909D
:100FB0000895411101C04FEF813079F028F082305F
:100FC000A9F08330E1F024C08AB3942F909589234F
:100FD0006423682B6ABB80E0089587B3942F9095B3
:100FE00089236423682B67BB80E0089584B3942F22
:100FF000909589236423682B64BB80E0089581B3B6
:10100000942F909589236423682B61BB80E0089519
:1010100081E00895411101C04FEF813079F028F04F
:101020008230A9F08330E1F024C08BB3942F9095E7
:1010300089236423682B6BBB80E0089588B3942FC9
:10104000909589236423682B68BB80E0089585B35D
:10105000942F909589236423682B65BB80E00895C5
:1010600082B3942F909589236423682B62BB80E020
:10107000089581E00895CF93DF931F92CDB7DEB737
:1010800089838981882F90E0009719F0019741F1B9
:101090003DC083E590E023E530E0F90120812F7B1E
:1010A000FC01208383E590E023E530E0F901208115
:1010B000277FFC0120838FE590E02FE530E0F901E8
:1010C00020812068FC01208389E590E029E530E05B
:1010D000F90120812160FC0120831092630018C077
:1010E00083E590E023E530E0F90120812F7BFC01CE
:1010F000208383E590E023E530E0F9012081277F1C
:10110000FC01208381E08093630002C081E001C084
:1011100080E00F90DF91CF9108950F931F93CF93AD
:10112000DF9300D000D000D0CDB7DEB79E838D8393
:101130008091360190913701892B51F080913601D1
:1011400090913701FC018081813011F481E00EC162
:1011500083E590E0FC0110828D819E81CC01A0E0AE
:10116000B0E0BC01CD010E940F0FDC01CB0120E0FB
:1011700030E04AE754E4BC01CD010E946E0EDC0170
:10118000CB0189839A83AB83BC832DEB37E346E89D
:101190005EE369817A818B819C810E94690E88233C
:1011A0003CF502E510E029813A814B815C816DEBD1
:1011B00077E386E89EE30E94E50DDC01CB012DEB91
:1011C00037E346E85AE3BC01CD010E946E0EDC0114
:1011D000CB01BC01CD010E94E00EDC01CB01F80186
:1011E000808381E090E090932B0180932A0186C058
:1011F0002DEB37E346E85EE369817A818B819C8140
:101200000E94690E882359F482E590E0FC01108267
:1012100081E090E090932B0180932A016FC02DEB29
:1012200037E346E85EE369817A818B819C810E9485
:101230006E0EDC01CB01BC01CD010E94520EDC011F
:10124000CB01BC01CD010E94E00EDC01CB019093EB
:101250002B0180932A0102E510E080912A019091F0
:101260002B01CC01A0E0B0E0BC01CD010E940F0F2A
:10127000DC01CB0120E030E040E85FE3BC01CD01C0
:101280000E94E50DDC01CB012DEB37E346E85EE380
:10129000BC01CD010E940710DC01CB019C01AD0116
:1012A00069817A818B819C810E94E50DDC01CB01F3
:1012B0002DEB37E346E85AE3BC01CD010E946E0EE8
:1012C000DC01CB019C01AD0160E070E080E893E4BB
:1012D0000E94E50DDC01CB01BC01CD010E94E00EB6
:1012E000DC01CB01F801808382E590E0FC01808184
:1012F000882F90E090932F0180932E0110922D0162
:1013000010922C0180E094E00E94FC09809163001F
:10131000813059F51DC0000088E590E0FC01808116
:10132000882F90E081709927892BB1F388E590E0B0
:1013300028E530E0F90120812160FC0120838091C3
:101340002C0190912D01019690932D0180932C01F9
:1013500020912A0130912B0180912C0190912D0137
:1013600082179307C0F20E94B00A80E026960FB65B
:10137000F894DEBF0FBECDBFDF91CF911F910F91CB
:101380000895CF93DF9300D0CDB7DEB79A838983DA
:1013900083E590E0FC01108289819A818230910579
:1013A00099F08330910518F4019741F01FC08A30FD
:1013B000910581F0883C910599F018C082E590E094
:1013C0002FEFFC01208312C082E590E02EEFFC019C
:1013D00020830CC082E590E025EFFC01208306C04D
:1013E00082E590E027E3FC012083000080E00F907D
:1013F0000F90DF91CF910895CF93DF9300D0CDB7B9
:10140000DEB79A83898389819A818034910509F4B2
:101410004BC08134910530F48130910569F0089713
:1014200039F196C0811521E0920709F459C0811560
:10143000944009F471C08CC083E590E023E530E06E
:10144000F90120812D7FFC01208383E590E023E5D5
:1014500030E0F90120812B7FFC01208383E590E0BF
:1014600023E530E0F90120812160FC01208372C076
:1014700083E590E023E530E0F90120812E7FFC0137
:10148000208383E590E023E530E0F90120812B7F84
:10149000FC01208383E590E023E530E0F901208121
:1014A0002260FC01208356C083E590E023E530E014
:1014B000F90120812B7FFC01208383E590E023E567
:1014C00030E0F90120812260FC01208383E590E077
:1014D00023E530E0F90120812160FC0120833AC03E
:1014E00083E590E023E530E0F90120812D7FFC01C8
:1014F000208383E590E023E530E0F90120812E7F11
:10150000FC01208383E590E023E530E0F9012081B0
:101510002460FC0120831EC083E590E023E530E0D9
:10152000F90120812D7FFC01208383E590E023E5F4
:1015300030E0F90120812460FC01208383E590E004
:1015400023E530E0F90120812160FC01208302C005
:1015500081E001C080E00F900F90DF91CF9108955E
:10156000CF93DF93CDB7DEB783E590E023E530E09E
:10157000F90120812E7FFC01208383E590E023E5A3
:1015800030E0F90120812D7FFC01208383E590E08C
:1015900023E530E0F90120812B7FFC01208300004E
:1015A000DF91CF910895CF93DF931F92CDB7DEB730
:1015B00089838981882F90E0009719F0019731F194
:1015C00038C085E490E025E430E0F90120812F7BEC
:1015D000FC01208385E490E025E430E0F9012081DE
:1015E000277FFC0120838FE590E02FE530E0F901B3
:1015F00020812068FC01208389E590E029E530E026
:10160000F90120812064FC01208315C085E490E06D
:1016100025E430E0F90120812F7BFC01208385E463
:1016200090E025E430E0F9012081277FFC01208350
:1016300002C081E001C080E00F90DF91CF9108955A
:101640000F931F93CF93DF9300D000D000D0CDB77E
:10165000DEB79E838D838D819E81CC01A0E0B0E0BA
:10166000BC01CD010E940F0FDC01CB0120E030E076
:101670004AE754E4BC01CD010E946E0EDC01CB01AF
:1016800027E337E346E856E4BC01CD010E9402108F
:10169000181614F481E0DFC085E490E0FC011082AC
:1016A0008D819E81CC01A0E0B0E0BC01CD010E9403
:1016B0000F0FDC01CB0120E030E04AE754E4BC012D
:1016C000CD010E946E0EDC01CB0189839A83AB832E
:1016D000BC832DEB37E346E85EE369817A818B8139
:1016E0009C810E94690E88233CF504E410E0298166
:1016F0003A814B815C816DEB77E386E89EE30E9443
:10170000E50DDC01CB012DEB37E346E85AE3BC01E4
:10171000CD010E946E0EDC01CB01BC01CD010E9407
:10172000E00EDC01CB01F801808381E090E0909332
:1017300033018093320186C02DEB37E346E85EE348
:1017400069817A818B819C810E94690E882359F47A
:1017500084E490E0FC01108281E090E090933301FA
:10176000809332016FC02DEB37E346E85EE3698179
:101770007A818B819C810E946E0EDC01CB01BC01C1
:10178000CD010E94520EDC01CB01BC01CD010E94B3
:10179000E00EDC01CB01909333018093320104E42D
:1017A00010E08091320190913301CC01A0E0B0E0D3
:1017B000BC01CD010E940F0FDC01CB0120E030E025
:1017C00040E85FE3BC01CD010E94E50DDC01CB01E7
:1017D0002DEB37E346E85EE3BC01CD010E94071024
:1017E000DC01CB019C01AD0169817A818B819C81F7
:1017F0000E94E50DDC01CB012DEB37E346E85AE30F
:10180000BC01CD010E946E0EDC01CB019C01AD013B
:1018100060E070E080E893E40E94E50DDC01CB011C
:10182000BC01CD010E94E00EDC01CB01F8018083F8
:1018300084E490E0FC018081882F90E09093350152
:1018400080933401109231011092300180E094E0D5
:101850000E94360C80E026960FB6F894DEBF0FBECD
:10186000CDBFDF91CF911F910F910895CF93DF935B
:1018700000D0CDB7DEB79A83898389819A8180347D
:10188000910509F46FC08134910550F488309105B9
:1018900091F18032910509F44AC0019781F0D1C0DD
:1018A000811521E0920709F494C08115E4E09E07B8
:1018B00009F4ABC08038910509F46FC0C2C085E45B
:1018C00090E025E430E0F90120812D7FFC012083A8
:1018D00085E490E025E430E0F90120812B7FFC01D4
:1018E000208385E490E025E430E0F9012081216047
:1018F000FC012083A8C085E490E025E430E0F901F4
:1019000020812E7FFC01208385E490E025E430E0F7
:10191000F90120812B7FFC01208385E490E025E400
:1019200030E0F90120812260FC0120838CC085E435
:1019300090E025E430E0F90120812B7FFC01208339
:1019400085E490E025E430E0F90120812260FC018B
:10195000208385E490E025E430E0F90120812160D6
:10196000FC01208385E490E025E430E0F90120814A
:101970002460FC01208385E490E025E430E0F90157
:1019800020812D7FFC01208385E490E025E430E078
:10199000F90120812E7FFC01208385E490E025E47D
:1019A00030E0F90120812B7FFC01208385E490E069
:1019B00025E430E0F90120812D7FFC01208385E4BE
:1019C00090E025E430E0F90120812160FC012083D2
:1019D0003AC085E490E025E430E0F90120812260FE
:1019E000FC01208385E490E025E430E0F9012081CA
:1019F0002E7FFC01208385E490E025E430E0F901AE
:101A000020812460FC0120831EC085E490E025E451
:101A100030E0F90120812260FC01208385E490E020
:101A200025E430E0F90120812460FC01208385E475
:101A300090E025E430E0F90120812160FC01208361
:101A400002C081E001C080E00F900F90DF91CF9144
:101A50000895CF93DF93CDB7DEB785E490E025E41A
:101A600030E0F90120812E7FFC01208385E490E0A5
:101A700025E430E0F90120812D7FFC01208385E4FD
:101A800090E025E430E0F90120812B7FFC012083E8
:101A90000000DF91CF9108951F920F9200905F0098
:101AA0000F9211242F933F934F935F936F937F93E4
:101AB0008F939F93AF93BF93EF93FF93CF93DF9356
:101AC000CDB7DEB7809130019091310101969093AE
:101AD00031018093300120913001309131018091AA
:101AE0003201909133012817390748F010923101E3
:101AF0001092300181E0809329010E94290D00009D
:101B0000DF91CF91FF91EF91BF91AF919F918F9115
:101B10007F916F915F914F913F912F910F90009224
:101B20005F000F901F9018951F920F9200905F001A
:101B30000F9211242F933F934F935F936F937F9353
:101B40008F939F93AF93BF93EF93FF93CF93DF93C5
:101B5000CDB7DEB780912C0190912D010196909325
:101B60002D0180932C0120912C0130912D01809129
:101B70002A0190912B012817390790F010922D011E
:101B800010922C0181E0809329010E94B00A89E51E
:101B900090E029E530E0F90120812E7FFC012083CF
:101BA0000000DF91CF91FF91EF91BF91AF919F9195
:101BB0008F917F916F915F914F913F912F910F90F6
:101BC00000925F000F901F9018955058BB27AA27CE
:101BD0000E94FD0D0C94B00F0E94A20F38F00E94DD
:101BE000A90F20F039F49F3F19F426F40C949F0FAD
:101BF0000EF4E095E7FB0C94700FE92F0E94C10FE3
:101C000058F3BA17620773078407950720F079F431
:101C1000A6F50C94FB0F0EF4E0950B2EBA2FA02D19
:101C20000B01B90190010C01CA01A0011124FF2789
:101C3000591B99F0593F50F4503E68F11A16F04084
:101C4000A22F232F342F4427585FF3CF4695379583
:101C50002795A795F0405395C9F77EF41F16BA0B48
:101C6000620B730B840BBAF09150A1F0FF0FBB1FF6
:101C7000661F771F881FC2F70EC0BA0F621F731F3F
:101C8000841F48F4879577956795B795F7959E3F9C
:101C900008F0B0CF9395880F08F09927EE0F97952D
:101CA000879508950E94E30F90F09F3748F49111B3
:101CB00016F40C94FC0F60E070E080E89FE3089558
:101CC00026F01B16611D711D811D0C94760F0C945E
:101CD000910F0E944C0F08F481E008950E94820E3B
:101CE0000C94B00F0E94A90F58F00E94A20F40F070
:101CF00029F45F3F29F00C94700F51110C94FC0FE4
:101D00000C949F0F0E94C10F68F39923B1F35523E0
:101D100091F3951B550BBB27AA27621773078407FE
:101D200038F09F5F5F4F220F331F441FAA1FA9F394
:101D300035D00E2E3AF0E0E832D091505040E69582
:101D4000001CCAF72BD0FE2F29D0660F771F881FE3
:101D5000BB1F261737074807AB07B0E809F0BB0BD6
:101D6000802DBF01FF2793585F4F3AF09E3F5105EA
:101D700078F00C94700F0C94FC0F5F3FE4F3983EE6
:101D8000D4F3869577956795B795F7959F5FC9F7D3
:101D9000880F911D9695879597F90895E1E0660F54
:101DA000771F881FBB1F621773078407BA0720F0CD
:101DB000621B730B840BBA0BEE1F88F7E095089536
:101DC0000E94C90F88F09F5798F0B92F9927B751F3
:101DD000B0F0E1F0660F771F881F991F1AF0BA95CF
:101DE000C9F714C0B13091F00E94FB0FB1E0089523
:101DF0000C94FB0F672F782F8827B85F39F0B93F15
:101E0000CCF3869577956795B395D9F73EF4909581
:101E10008095709561957F4F8F4F9F4F0895E894FF
:101E200009C097FB3EF490958095709561957F4F22
:101E30008F4F9F4F9923A9F0F92F96E9BB279395D0
:101E4000F695879577956795B795F111F8CFFAF4E0
:101E5000BB0F11F460FF1BC06F5F7F4F8F4F9F4F11
:101E600016C0882311F096E911C0772321F09EE86F
:101E7000872F762F05C0662371F096E8862F70E0D5
:101E800060E02AF09A95660F771F881FDAF7880FAF
:101E90009695879597F90895990F0008550FAA0B05
:101EA000E0E8FEEF16161706E807F907C0F012166D
:101EB0001306E407F50798F0621B730B840B950B70
:101EC00039F40A2661F0232B242B252B21F40895C5
:101ED0000A2609F4A140A6958FEF811D811D089562
:101EE00097F99F6780E870E060E00895882371F4B7
:101EF000772321F09850872B762F07C0662311F4A3
:101F000099270DC09051862B70E060E02AF09A95D9
:101F1000660F771F881FDAF7880F9695879597F9D0
:101F200008959F3F31F0915020F4879577956795FC
:101F3000B795880F911D9695879597F908959FEF0E
:101F400080EC089500240A94161617061806090650
:101F5000089500240A94121613061406050608951F
:101F6000092E0394000C11F4882352F0BB0F40F4A7
:101F7000BF2B11F460FF04C06F5F7F4F8F4F9F4FE7
:101F8000089557FD9058440F551F59F05F3F71F069
:101F90004795880F97FB991F61F09F3F79F08795D0
:101FA0000895121613061406551FF2CF4695F1DF59
:101FB00008C0161617061806991FF1CF86957105E9
:101FC0006105089408950E94C90FA0F0BEE7B917F3
:101FD00088F4BB279F3860F41616B11D672F782F41
:101FE0008827985FF7CF869577956795B11D93956C
:101FF0009639C8F30895E894BB2766277727CB0165
:1020000097F908950E944C0F08F48FEF08950E94ED
:102010001A100C94B00F0E94A20F38F00E94A90F62
:1020200020F0952311F00C94700F0C949F0F112445
:102030000C94FC0F0E94C10F70F3959FC1F3950F94
:1020400050E0551F629FF001729FBB27F00DB11D3C
:10205000639FAA27F00DB11DAA1F649F6627B00DCC
:10206000A11D661F829F2227B00DA11D621F739FB5
:10207000B00DA11D621F839FA00D611D221F749FC3
:102080003327A00D611D231F849F600D211D822F0A
:10209000762F6A2F11249F5750409AF0F1F0882331
:1020A0004AF0EE0FFF1FBB1F661F771F881F91505E
:1020B0005040A9F79E3F510580F00C94700F0C948E
:1020C000FC0F5F3FE4F3983ED4F3869577956795D0
:1020D000B795F795E7959F5FC1F7FE2B880F911D88
:1020E0009695879597F90895A29FB001B39FC00177
:1020F000A39F700D811D1124911DB29F700D811D34
:102100001124911D08950E947410A59F900DB49FF5
:10211000900DA49F800D911D11240895DC0101C034
:102120006D9341505040E0F70895AEE0B0E0EBE928
:10213000F0E10C9456130D891E8986E08C831A8376
:1021400009838FEF9FE79E838D83AE01475E5F4FCC
:102150006F89788DCE0101960E94B710EF81F885C6
:10216000E00FF11F10822E96E4E00C947213ABE0A6
:10217000B0E0EDEBF0E10C9448136C017B018A01B7
:10218000FC0117821682838181FFCCC1CE010196AA
:102190003C01F6019381F70193FD859193FF8191B5
:1021A0007F01882309F4BAC1853239F493FD859102
:1021B00093FF81917F01853229F4B60190E00E945E
:1021C000AE12E7CF912C212C312CFFE1F315D8F082
:1021D0008B3279F038F4803279F08332A1F4232DF8
:1021E00020611DC08D3261F0803369F4232D2160A0
:1021F00016C0832D8260382EE32DE4603E2E2AC067
:10220000F32DF8601DC037FC2DC020ED280F2A30BB
:1022100040F08E32B9F436FC81C1232D2064322E79
:1022200019C036FE06C08AE0989E200D1124922E19
:1022300011C0EAE02E9E200D1124222EF32DF06213
:102240003F2E08C08C3621F4832D8068382E02C0C2
:10225000883641F4F70193FD859193FF81917F01C9
:102260008111B3CF982F9F7D9554933028F40C5F44
:102270001F4F9FE399830DC0833631F0833771F090
:10228000833509F059C021C0F801808189830E5F30
:102290001F4F88248394912C530113C02801F2E02E
:1022A0004F0E511CF801A080B18036FE03C0692D8D
:1022B00070E002C06FEF7FEFC5010E94A3124C01D6
:1022C0008201F32DFF773F2E16C0280122E0420E37
:1022D000511CF801A080B18036FE03C0692D70E06A
:1022E00002C06FEF7FEFC5010E9498124C01F32DE1
:1022F000F0683F2E820133FC1BC0822D90E08816CF
:102300009906B0F4B60180E290E00E94AE122A94E1
:10231000F4CFF50137FC859137FE81915F01B6015D
:1023200090E00E94AE1221102A9421E0821A9108B6
:102330008114910471F7E8C0843611F0893641F5B3
:10234000F80137FE07C060817181828193810C5F43
:102350001F4F08C060817181072E000C880B990BFC
:102360000E5F1F4FF32DFF763F2E97FF09C090950C
:102370008095709561957F4F8F4F9F4FF0683F2EEE
:102380002AE030E0A3010E94EA12882E861845C098
:10239000853731F4232D2F7EB22E2AE030E025C080
:1023A000932D997FB92E8F36C1F018F4883579F0C6
:1023B000B5C0803719F0883721F0B0C0E92FE0614F
:1023C000BE2EB4FE0DC0FB2DF460BF2E09C034FE3E
:1023D0000AC0292F2660B22E06C028E030E005C0D2
:1023E00020E130E002C020E132E0F801B7FE07C092
:1023F00060817181828193810C5F1F4F06C0608173
:10240000718180E090E00E5F1F4FA3010E94EA12ED
:10241000882E8618FB2DFF773F2E36FE0DC0232D0C
:102420002E7FA22E891458F434FE0BC032FC09C052
:10243000832D8E7EA82E05C0B82CA32C03C0B82CEB
:1024400001C0B92CA4FE0FC0FE01E80DF11D808172
:10245000803321F49A2D997EA92E09C0A2FE06C0D0
:10246000B394B39404C08A2D867809F0B394A3FC86
:1024700011C0A0FE06C0B21488F4280C922C9B1840
:102480000EC0B21460F4B60180E290E00E94AE1279
:10249000B394F7CFB21418F42B1802C0982C212C47
:1024A000A4FE10C0B60180E390E00E94AE12A2FE2E
:1024B00017C0A1FC03C088E790E002C088E590E067
:1024C000B6010CC08A2D867859F0A1FE02C08BE2BD
:1024D00001C080E2A7FC8DE2B60190E00E94AE123E
:1024E000891438F4B60180E390E00E94AE129A9409
:1024F000F7CF8A94F301E80DF11D8081B60190E0D9
:102500000E94AE128110F5CF222009F442CEB6010E
:1025100080E290E00E94AE122A94F6CFF601868106
:10252000978102C08FEF9FEF2B96E2E10C9464132A
:10253000FC010590615070400110D8F7809590958E
:102540008E0F9F1F0895FC01615070400190011093
:10255000D8F7809590958E0F9F1F08950F931F9326
:10256000CF93DF93FB01238121FD03C08FEF9FEF0A
:102570002CC022FF16C04681578124813581421725
:10258000530744F4A081B1819D012F5F3F4F3183F8
:1025900020838C93268137812F5F3F4F378326839B
:1025A00014C08B01EC01FB010084F185E02D09953D
:1025B000892BE1F6D80116968D919C91179701967B
:1025C00017969C938E931697CE01DF91CF911F9112
:1025D0000F910895FA01AA27283051F1203181F195
:1025E000E8946F936E7F6E5F7F4F8F4F9F4FAF4F1B
:1025F000B1E03ED0B4E03CD0670F781F891F9A1F2E
:10260000A11D680F791F8A1F911DA11D6A0F711DE1
:10261000811D911DA11D20D009F468943F912AE0ED
:10262000269F11243019305D3193DEF6CF010895D5
:10263000462F4770405D4193B3E00FD0C9F7F6CF06
:10264000462F4F70405D4A3318F0495D31FD4052CE
:10265000419302D0A9F7EACFB4E0A6959795879564
:1026600077956795BA95C9F7009761057105089543
:102670009B01AC010A2E06945795479537952795EF
:10268000BA95C9F7620F731F841F951FA01D089587
:102690002F923F924F925F926F927F928F929F9272
:1026A000AF92BF92CF92DF92EF92FF920F931F9360
:1026B000CF93DF93CDB7DEB7CA1BDB0B0FB6F89411
:1026C000DEBF0FBECDBF09942A88398848885F8451
:1026D0006E847D848C849B84AA84B984C884DF80C2
:1026E000EE80FD800C811B81AA81B981CE0FD11DA6
:1026F0000FB6F894DEBF0FBECDBFED010895F8947C
:02270000FFCF09
:102702001400040157656C636F6D650A20486163AC
:102712006B657220204B65726D6974002020204128
:102722004320436F6E74726F6C0A64656661756CE8
:10273200742074656D703A20323000256400437550
:102742007272656E742074656D703A2000506C650B
:102752006173652063686F6F73650A7468652072C0
:102762006571756972656420746D70002020202087
:10277200436F6E74726F6C730A31282B29203228D2
:102782002D2920332873657429004D696E3A31383A
:10279200202564204D61783A3335005265736574A3
:1027A20020746F2064656661756C74202020546506
:1027B2006D703A20323000313233343530040E0E2F
:0627C2000E1F00040000E0
:00000001FF
